{
    "contractName": "Ballots",
    "abi": [
        {
            "inputs": [
                {
                    "internalType": "bytes32",
                    "name": "_main_key",
                    "type": "bytes32"
                },
                {
                    "internalType": "bytes32",
                    "name": "_sub_key",
                    "type": "bytes32"
                },
                {
                    "internalType": "bytes32",
                    "name": "_district",
                    "type": "bytes32"
                }
            ],
            "stateMutability": "nonpayable",
            "type": "constructor"
        },
        {
            "inputs": [
                {
                    "internalType": "bytes32",
                    "name": "_voter_id",
                    "type": "bytes32"
                },
                {
                    "internalType": "bytes32",
                    "name": "_key",
                    "type": "bytes32"
                }
            ],
            "name": "Vote_Details",
            "outputs": [
                {
                    "internalType": "bytes32",
                    "name": "",
                    "type": "bytes32"
                },
                {
                    "internalType": "bytes32",
                    "name": "",
                    "type": "bytes32"
                },
                {
                    "internalType": "bytes32",
                    "name": "",
                    "type": "bytes32"
                },
                {
                    "internalType": "bytes32",
                    "name": "",
                    "type": "bytes32"
                }
            ],
            "stateMutability": "view",
            "type": "function"
        },
        {
            "inputs": [
                {
                    "internalType": "bytes32",
                    "name": "_voter_id",
                    "type": "bytes32"
                }
            ],
            "name": "checkVoterExists",
            "outputs": [
                {
                    "internalType": "uint8",
                    "name": "",
                    "type": "uint8"
                },
                {
                    "internalType": "bytes32",
                    "name": "",
                    "type": "bytes32"
                }
            ],
            "stateMutability": "view",
            "type": "function"
        },
        {
            "inputs": [
                {
                    "internalType": "bytes32",
                    "name": "_voter_id",
                    "type": "bytes32"
                },
                {
                    "internalType": "bytes32",
                    "name": "_precint_no",
                    "type": "bytes32"
                },
                {
                    "internalType": "bytes32",
                    "name": "_key",
                    "type": "bytes32"
                }
            ],
            "name": "registerVoter",
            "outputs": [],
            "stateMutability": "nonpayable",
            "type": "function"
        },
        {
            "inputs": [
                {
                    "internalType": "bytes32",
                    "name": "_voteStringA",
                    "type": "bytes32"
                },
                {
                    "internalType": "bytes32",
                    "name": "_voteStringB",
                    "type": "bytes32"
                },
                {
                    "internalType": "bytes32",
                    "name": "_voter_id",
                    "type": "bytes32"
                },
                {
                    "internalType": "bytes32",
                    "name": "_vote_date",
                    "type": "bytes32"
                },
                {
                    "internalType": "bytes32",
                    "name": "_key",
                    "type": "bytes32"
                }
            ],
            "name": "vote",
            "outputs": [],
            "stateMutability": "nonpayable",
            "type": "function"
        }
    ],
    "bytecode": "608060405234801561001057600080fd5b5060405161035b38038061035b8339818101604052606081101561003357600080fd5b50805160208201516040909201516000919091556001919091556002556102fc8061005f6000396000f3fe608060405234801561001057600080fd5b506004361061004c5760003560e01c80638c74e0e914610051578063ab58f93c14610088578063e1907e6c146100c2578063ff8c1e65146100eb575b600080fd5b610086600480360360a081101561006757600080fd5b5080359060208101359060408101359060608101359060800135610134565b005b6100a56004803603602081101561009e57600080fd5b50356101ac565b6040805160ff909316835260208301919091528051918290030190f35b610086600480360360608110156100d857600080fd5b50803590602081013590604001356101cd565b61010e6004803603604081101561010157600080fd5b5080359060200135610243565b604080519485526020850193909352838301919091526060830152519081900360800190f35b6001548114610184576040805162461bcd60e51b815260206004820152601760248201527614d5508e881058d8d95cdcc81b9bdd08185b1b1bddd959604a1b604482015290519081900360640190fd5b5060008281526004602052604090209182556001820193909355600281019190915560030155565b6000908152600360205260409020600181015460029091015460ff90911691565b600154811461021d576040805162461bcd60e51b815260206004820152601760248201527614d5508e881058d8d95cdcc81b9bdd08185b1b1bddd959604a1b604482015290519081900360640190fd5b506000918252600360205260409091206001818101805460ff1916909117905560020155565b6000806000806000548514610299576040805162461bcd60e51b815260206004820152601760248201527614d5508e881058d8d95cdcc81b9bdd08185b1b1bddd959604a1b604482015290519081900360640190fd5b5050506000928352505060046020526040902080546001820154600283015460039093015491939092919056fea2646970667358221220852605ffc408e0807fa19cc2b65f8d33d0abc33bb11a783bcbff9b116c464c5264736f6c63430006010033",
    "sourcePath": "c:/Users/Jay/Documents/smart contracts/contract_election.sol",
    "compiler": {
        "name": "solc",
        "version": "0.6.1+commit.e6f7d5a4"
    },
    "functionHashes": {
        "Vote_Details(bytes32,bytes32)": "ff8c1e65",
        "checkVoterExists(bytes32)": "ab58f93c",
        "registerVoter(bytes32,bytes32,bytes32)": "e1907e6c",
        "vote(bytes32,bytes32,bytes32,bytes32,bytes32)": "8c74e0e9"
    },
    "gasEstimates": {
        "creation": {
            "codeDepositCost": "152800",
            "executionCost": "infinite",
            "totalCost": "infinite"
        },
        "external": {
            "Vote_Details(bytes32,bytes32)": "4521",
            "checkVoterExists(bytes32)": "1972",
            "registerVoter(bytes32,bytes32,bytes32)": "41977",
            "vote(bytes32,bytes32,bytes32,bytes32,bytes32)": "81166"
        }
    }
}